:020000040800F2
:10000000002800200D150008B1130008B7130008E0
:10001000BD130008C3130008C91300080000000046
:10002000000000000000000000000000CF130008E6
:10003000DB13000800000000E7130008F3130008BA
:1000400055150008551500085515000855150008E8
:1000500055150008551500085515000855150008D8
:1000600055150008551500085515000855150008C8
:1000700055150008551500085515000855150008B8
:1000800055150008551500085515000855150008A8
:100090005515000855150008551500085515000898
:1000A0005515000855150008551500085515000888
:1000B000011400085515000800000000551500083F
:1000C000551500080000000000000000551500084C
:1000D000000000005515000855150008000000003C
:1000E00055150008551500085515000800000000BA
:1000F0000000000000000000000000000000000000
:0C01000000000000000000005FF808F1A3
:10010C0010B5054C237833B9044B13B10448AFF345
:10011C0000800123237010BDCC00002000000000E3
:10012C00382D000808B5034B1BB103490348AFF346
:10013C00008008BD00000000D0000020382D000811
:10014C0080B483B000AF7860044A7B68012142F828
:10015C00231000BF0C37BD4680BC7047E800002060
:10016C0080B400AF064B1B68012B04D1044B00225A
:10017C001A60012300E000231846BD4680BC70477E
:10018C00E800002080B400AF064B5B68012B04D163
:10019C00044B00225A60012300E000231846BD46A0
:1001AC0080BC7047E800002080B400AF064B9B6811
:1001BC00012B04D1044B00229A60012300E00023A0
:1001CC001846BD4680BC7047E800002080B582B060
:1001DC0000AF00237B6072E03D4A7B6852F823201D
:1001EC003C497B6841F823203B4A7B6852F823202A
:1001FC0037497B6841F82320384A7B6832F8133042
:10020C001946374801F08CFC03461946324A7B6884
:10021C0042F823102F4A7B6852F823202C497B6824
:10022C0051F823309A4247D1294A7B6852F823204F
:10023C0029497B6851F823309A423DD1294A7B6881
:10024C0052F8232024497B6851F823309A4216D067
:10025C00214A7B6852F8232022497B6841F82320ED
:10026C001D4A7B6852F82330002B25D17868FFF7A4
:10027C0067FF1D4A7B68C82142F823101CE01A4A0C
:10028C007B6852F823305A1E17497B6841F82320AB
:10029C00154A7B6852F82330002B0DDC0E4A7B6824
:1002AC0052F82330002B02D17868FFF749FF0E4A31
:1002BC007B68322142F823107B6801337B607B68BA
:1002CC00022B89DD00BF00BF0837BD4680BD00BFD3
:1002DC000C0000200000002018000020300000203E
:1002EC000008014024000020F400002080B500AF7D
:1002FC00A24B1B68013B042B00F2348101A252F883
:10030C0023F000BF2503000869030008E903000877
:10031C0071040008ED04000800227E21984801F0C9
:10032C0016FC984B1B68984A1360964B5B68974A6F
:10033C001360944B9B68964A1360904B02221A6090
:10034C004FF47A7000F0DAFEFA2000F0F1FEFFF7BD
:10035C0007FFFFF717FFFFF727FF0CE101F090F8FD
:10036C00FFF7FEFE0346012B0FD1844B0D221A60C2
:10037C0000F0D2F942F2107000F0F4FE4FF4FA7073
:10038C0000F00AFFFA2000F021FF824B1B68012BC2
:10039C0004D100F003F9FA2000F0CAFE7E4B1B6872
:1003AC00012B40F0E180784B1B68013B764A1360CF
:1003BC00774B1B68013B764A13604FF47A7000F060
:1003CC009DFE734B1B68002B40F0CE806B4B0322C1
:1003DC001A606C4B9B686E4A1360C5E001F060F8C4
:1003EC00FFF7BEFE0346012B0FD1644B0D221A60A2
:1003FC0000F092F942F2107000F0B4FE4FF4FA7073
:10040C0000F0CAFEFA2000F0E1FE624B1B68012BE3
:10041C0004D100F0C3F8FA2000F08AFE5E4B1B6892
:10042C00012B40F0A380584B1B68013B564A1360CC
:10043C00564B1B68013B554A13604FF47A7000F021
:10044C005DFE514B1B68002B40F090804B4B0422FF
:10045C001A604C4B1B684C4A13604A4B5B684B4A06
:10046C00136083E001F02CF8FFF77AFE0346012BB2
:10047C000FD1424B0D221A6000F04EF942F210706F
:10048C0000F070FE4FF4FA7000F086FEFA2000F0D7
:10049C009DFE404B1B68012B04D100F07FF8FA2025
:1004AC0000F046FE3C4B1B68012B61D1364B1B68A0
:1004BC00013B354A1360364B1B68013B344A1360D1
:1004CC004FF47A7000F01AFE314B1B68002B4FD1A1
:1004DC002A4B05221A602B4B9B682D4A136047E070
:1004EC0000F0FEFFFFF73CFE0346012B0FD1234B20
:1004FC000D221A6000F010F942F2107000F032FE7A
:10050C004FF4FA7000F048FEFA2000F05FFE214B29
:10051C001B68012B04D100F041F8FA2000F008FE12
:10052C001D4B1B68012B25D1174B1B68013B164A31
:10053C001360164B1B68013B144A13604FF47A701E
:10054C0000F0DCFD104B1B68002B13D10B4B02226F
:10055C001A600C4B1B680C4A13600A4B5B680B4A05
:10056C00136007E000BF06E000BF04E000BF02E03C
:10057C0000BF00E000BF00BF80BD00BF1C01002019
:10058C0000080140380000200C0100201001002060
:10059C00140100202C0100202401002080B500AFA4
:1005AC00544B1B68022B0CD0524B1B68032B08D0EE
:1005BC00504B1B68042B04D04E4B1B68052B40F092
:1005CC0095804C4B1B68022B13D04A4B1B68032B9A
:1005DC000FD0484B1B68042B08D0464B1B68052BCF
:1005EC0002D1454B1B6806E0002304E0434B1B681B
:1005FC0001E0434B1B68434A13603E4B1B68022BC4
:10060C0013D03C4B1B68032B0CD03A4B1B68042BB0
:10061C0003D0384B1B68052B02D1394B1B6806E005
:10062C00002304E0344B1B6801E0344B1B68364A52
:10063C001360364B1B68002B02D0012B26D056E0E2
:10064C0000224FF42071324801F081FA01224FF45C
:10065C00A0612F4801F07BFA2A4B1B682D4A82FBC4
:10066C0003129210DB17D31A184600F023FA264B0C
:10067C001B68284A82FB03129210DB17D31A184608
:10068C0000F0A6FA214B01221A6030E001224FF44F
:10069C0020711F4801F05BFA00224FF4A0611C4846
:1006AC0001F055FA174B1A681A4B83FB0213991079
:1006BC00D317C91A0B469B000B445B00D11A084692
:1006CC0000F0F8F9104B1A68124B83FB02139910C7
:1006DC00D317C91A0B469B000B445B00D11A084672
:1006EC0000F076FA094B00221A6000E000BF00BF50
:1006FC0080BD00BF1C01002010010020140100204F
:10070C000C01002004010020080100200001002041
:10071C00000801406766666680B500AF00227E2146
:10072C00024801F014FA00BF80BD00BF0008014070
:10073C0080B500AF974B1B680F2B00F0CD800F2BB3
:10074C0000F31F810D2B02D00E2B63D019E1924BBD
:10075C001B68012B07D11221904801F010FA4FF4BD
:10076C00FA7000F019FDFFF70DFD0346012B08D1BF
:10077C008B4B1B6801338A4A1360894B1B68894A6F
:10078C001360FFF711FD0346012B14D1864B1A6839
:10079C00864B1B681A44824B1B689A420BD1804BC8
:1007AC001B68834A1360814B1B68814A53607E4BE4
:1007BC001B687F4A93607F4B1B68012B04D100F0B0
:1007CC00FDF8FA2000F002FD7B4B1B68012B06D1D3
:1007DC00704B01221A60764B1B68714A1360FFF74D
:1007EC00BFFC0346012B40F0CE806A4B0E221A60F0
:1007FC00FFF792FF42F2107000F0B4FC4FF4FA7065
:10080C0000F0CAFCFA2000F0E1FC684B1B68654A5A
:10081C001360B8E0604B1B68012B07D124215F48A3
:10082C0001F0ADF94FF4FA7000F0B6FCFFF7AAFC3A
:10083C000346012B08D15D4B1B6801335B4A1360E7
:10084C005A4B1B68574A1360FFF7AEFC0346012B4B
:10085C0014D1564B1A68544B1B681A44504B1B68E6
:10086C009A420BD1514B1B68514A53604C4B1B683D
:10087C004F4A13604C4B1B684D4A93604D4B1B68A1
:10088C00012B04D100F09AF8FA2000F09FFC4A4B9F
:10089C001B68012B06D13F4B01221A60444B5B684D
:1008AC00424A1360FFF75CFC0346012B6DD1394BB8
:1008BC000F221A60FFF730FF42F2107000F052FC6A
:1008CC004FF4FA7000F068FCFA2000F07FFC364B15
:1008DC001B68344A136058E02F4B1B68012B07D15F
:1008EC0048212E4801F04BF94FF4FA7000F054FCFB
:1008FC00FFF748FC0346012B08D12B4B1B68013337
:10090C00294A1360284B1B68264A1360FFF74CFCDE
:10091C000346012B14D1254B1A68234B1B681A4430
:10092C001F4B1B689A420BD11F4B1B68204A9360CC
:10093C001B4B1B681E4A13601C4B1B681C4A5360E4
:10094C001C4B1B68012B04D100F038F8FA2000F086
:10095C003DFC194B1B68012B06D10E4B01221A6072
:10096C00134B9B68104A1360FFF7FAFB0346012BED
:10097C000DD1084B01221A6042F2107000F0F2FB0C
:10098C0005E000BF04E000BF02E000BF00E000BFD4
:10099C0000BF80BD1C0100203C010020000801406C
:1009AC0044000020500000204C0000204800002093
:1009BC0038000020440100203401002080B500AF35
:1009CC00364B1B680D2B07D0344B1B680E2B03D0FA
:1009DC00324B1B680F2B5ED1314B1B68002B02D0A6
:1009EC00012B1ED058E000224FF420712D4801F04D
:1009FC00AEF801224FF4A0612A4801F0A8F82A4B66
:100A0C001B682A4A82FB03129210DB17D31A184672
:100A1C0000F050F8002000F0DBF8214B01221A60A6
:100A2C003AE01E4B1B680D2B0DD01C4B1B680E2B7C
:100A3C0007D01A4B1B680F2B01D1042304E00123B0
:100A4C0002E0032300E00223194A136001224FF451
:100A5C002071144801F07BF800224FF4A06111487A
:100A6C0001F075F8104B1A68104B83FB02139910A8
:100A7C00D317C91A0B469B000B445B00D11A0846CE
:100A8C0000F018F80A4B1B68184600F0A1F8044B4C
:100A9C0000221A6000E000BF00BF80BD1C010020D6
:100AAC0018010020000801405000002067666666AF
:100ABC005400002080B582B000AF78607B68092BB1
:100ACC007FD801A252F823F0FD0A0008130B00088E
:100ADC00290B00083F0B0008550B00086B0B000896
:100AEC00810B0008970B0008AD0B0008B90B000830
:100AFC0001224021354801F02AF800223F213348D9
:100B0C0001F025F85EE001227921304801F01FF850
:100B1C00002206212D4801F01AF853E0012224216D
:100B2C002A4801F014F800225B21284801F00FF844
:100B3C0048E001223021254801F009F800224F211C
:100B4C00224801F004F83DE0012219211F4800F071
:100B5C00FEFF002266211D4800F0F9FF32E0012261
:100B6C0012211A4800F0F3FF00226D21174800F003
:100B7C00EEFF27E001220221144800F0E8FF0022DA
:100B8C007D21124800F0E3FF1CE0012278210F4880
:100B9C0000F0DDFF002207210C4800F0D8FF11E027
:100BAC0000227F21094800F0D2FF0BE00122102126
:100BBC00064800F0CCFF00226F21044800F0C7FF6C
:100BCC0000E000BF00BF0837BD4680BD000C0140EF
:100BDC0080B582B000AF78607B68092B00F29480FE
:100BEC0001A252F823F000BF1D0C0008370C0008BE
:100BFC00510C00086B0C0008850C00089F0C0008B9
:100C0C00B90C0008D30C0008ED0C0008FB0C000814
:100C1C0001224FF400513F4800F099FF00224FF49D
:100C2C00FC513C4800F093FF6FE001224FF47251ED
:100C3C00384800F08CFF00224FF44071354800F02A
:100C4C0086FF62E001224FF49051324800F07FFFA2
:100C5C0000224FF436512F4800F079FF55E0012265
:100C6C004FF4C0512B4800F072FF00224FF41E517C
:100C7C00284800F06CFF48E001224FF448612548F9
:100C8C0000F065FF00224FF44C51224800F05FFF4A
:100C9C003BE001224FF410611E4800F058FF002287
:100CAC004FF45A511B4800F052FF2EE001224FF432
:100CBC008071184800F04BFF00224FF47A51154810
:100CCC0000F045FF21E001224FF47051114800F073
:100CDC003EFF00224FF4C2710E4800F038FF14E0C2
:100CEC0000224FF47E510B4800F031FF0DE0012241
:100CFC004FF40061074800F02AFF00224FF45E51C8
:100D0C00044800F024FF00E000BF00BF0837BD46D8
:100D1C0080BD00BF000C014080B500AF4FF40061F6
:100D2C00024800F02CFF00BF80BD00BF000801404E
:100D3C0080B500AF00F00AFC00F03CF800F0C2F8FF
:100D4C0000F074F8144801F05FFB4FF47A7000F077
:100D5C00D5F900F02BF94FF47A7201210F4800F00D
:100D6C0031F90A2201210E4800F02CF90A22012146
:100D7C000C4800F027F90A2201210B4800F022F957
:100D8C000A220121094800F01DF9094B01221A60C1
:100D9C0000F076F9FCE700BF5C010020250D00088F
:100DAC000D120008D9010008F90200083D070008DF
:100DBC001C01002080B590B000AF07F11803282269
:100DCC000021184601F0E6FE3B1D00221A605A6015
:100DDC009A60DA601A610223BB610123BB621023A3
:100DEC00FB6200237B6307F11803184600F0E0FE5A
:100DFC000346002B01D000F0D3F80F237B600023B7
:100E0C00BB600023FB6000233B6100237B613B1D27
:100E1C000021184601F04CF90346002B01D000F0DC
:100E2C00BFF800BF4037BD4680BD000080B586B01E
:100E3C0000AF07F1080300221A605A609A60DA606A
:100E4C003B4600221A605A601D4B4FF080421A60DC
:100E5C001B4B41F63F725A60194B00229A60184B9B
:100E6C000922DA60164B00221A61154B00229A6196
:100E7C00134801F079FA0346002B01D000F090F8EA
:100E8C004FF48053BB6007F1080319460C4801F07E
:100E9C00F7FB0346002B01D000F082F800233B60E7
:100EAC0000237B603B461946054801F0CFFD034605
:100EBC00002B01D000F074F800BF1837BD4680BD80
:100ECC005C01002080B586B000AF07F1080300225A
:100EDC001A605A609A60DA60294B9B69284A43F081
:100EEC0004039361264B9B6903F004037B607B68CE
:100EFC00234B9B69224A43F008039361204B9B6967
:100F0C0003F008033B603B68002241F6FE711D486C
:100F1C0000F01DFE002243F6FF711B4800F017FE87
:100F2C0041F6FE73BB600123FB6000233B6102238F
:100F3C007B6107F108031946124800F077FC43F671
:100F4C00FF73BB600123FB6000233B6102237B61C9
:100F5C0007F1080319460C4800F068FC4FF4604395
:100F6C00BB600023FB6001233B6107F108031946BA
:100F7C00044800F05BFC00BF1837BD4680BD00BFC5
:100F8C000010024000080140000C014080B582B006
:100F9C0000AF786000F044F800BF0837BD4680BD54
:100FAC0080B400AF72B600BFFEE7000080B400AFA3
:100FBC00034B00221A6000BFBD4680BC704700BFC7
:100FCC002001002080B586B000AFF860B9607A606F
:100FDC00142001F0CFFD03467B617B69002B17D0F9
:100FEC007B69FA681A607B69BA685A607B680A4A3E
:100FFC00A2FB0323DA087B699A607B6900221A73CF
:10100C00064B1A687B691A61044A7B69136000E01D
:10101C0000BF1837BD4680BDCDCCCCCC2001002004
:10102C0080B483B000AF154B1B687B601DE07B6800
:10103C005B68002B04D07B685B685A1E7B685A6027
:10104C007B685B68002B0DD17B681B7B0133DAB2AC
:10105C007B681A737B689B68002B03D07B689A684B
:10106C007B685A607B681B697B607B68002BDED1D8
:10107C0000BF00BF0C37BD4680BC7047200100206C
:10108C0080B584B000AF1C4B1B68FB600023BB60B9
:10109C002AE0FB681B7B002B21D0FB681B68984760
:1010AC00FB681B7B013BDAB2FB681A73FB689B681D
:1010BC00002B14D1FB687B60BB68002B04D1FB6850
:1010CC001B690D4A136003E0FB681A69BB681A615F
:1010DC00FB681B69FB60786801F054FD04E0FB6859
:1010EC00BB60FB681B69FB60FB68002BD1D100BFA8
:1010FC0000BF1037BD4680BD2001002080B483B0F6
:10110C0000AF7860074B1B687A6892FBF3F3064AD2
:10111C001360064B00221A6000BF0C37BD4680BC22
:10112C00704700BF58000020280100202401002037
:10113C0080B483B000AF7860074B1B687A6892FB71
:10114C00F3F3064A1360064B00221A6000BF0C37FB
:10115C00BD4680BC704700BF580000203001002005
:10116C002C01002080B483B000AF7860074B1B6863
:10117C007A6892FBF3F3064A1360064B00221A605E
:10118C0000BF0C37BD4680BC704700BF5800002024
:10119C00380100203401002080B483B000AF7860A7
:1011AC00074B1B687A6892FBF3F3064A1360064BF5
:1011BC0000221A6000BF0C37BD4680BC704700BFD0
:1011CC0058000020400100203C01002080B483B076
:1011DC0000AF7860074B1B687A6892FBF3F3064A02
:1011EC001360064B00221A6000BF0C37BD4680BC52
:1011FC00704700BF58000020480100204401002027
:10120C0080B400AF314B1B68002B0BDD2F4B1B68E0
:10121C00013B2E4A13602D4B1B68002B02DC2C4B20
:10122C0001221A602B4B1B68002B0BDD294B1B6812
:10123C00013B284A1360274B1B68002B02DC264B12
:10124C0001221A60254B1B68002B0BDD234B1B68FE
:10125C00013B224A1360214B1B68002B02DC204B04
:10126C0001221A601F4B1B68002B0BDD1D4B1B68EA
:10127C00013B1C4A13601B4B1B68002B02DC1A4BF6
:10128C0001221A60194B1B68002B0BDD174B1B68D6
:10129C00013B164A1360154B1B68002B02DC144BE8
:1012AC0001221A60134B1B68002B0BDD114B1B68C2
:1012BC00013B104A13600F4B1B68002B02DC0D4BDB
:1012CC0001221A6000BFBD4680BC70472801002077
:1012DC0024010020300100202C01002038010020C6
:1012EC0034010020400100203C0100204801002076
:1012FC00440100204C01002080B485B000AF154B98
:10130C009B69144A43F001039361124B9B6903F0F0
:10131C000103BB60BB680F4BDB690E4A43F0805383
:10132C00D3610C4BDB6903F080537B607B680A4B09
:10133C005B68FB60FB6823F0E063FB60FB6843F0D9
:10134C008063FB60044AFB68536000BF1437BD46E2
:10135C0080BC7047001002400000014080B584B092
:10136C0000AF78607B681B68B3F1804F13D10C4BD6
:10137C00DB690B4A43F00103D361094BDB6903F0D2
:10138C000103FB60FB68002200211C2000F017FA0F
:10139C001C2000F030FA00BF1037BD4680BD00BFE6
:1013AC000010024080B400AFFEE780B400AFFEE74F
:1013BC0080B400AFFEE780B400AFFEE780B400AFAE
:1013CC00FEE780B400AF00BFBD4680BC704780B460
:1013DC0000AF00BFBD4680BC704780B400AF00BFFB
:1013EC00BD4680BC704780B500AF00F0F5F800BF7B
:1013FC0080BD000080B500AF024801F051F800BF7D
:10140C0080BD00BF5C01002080B586B000AF786065
:10141C00144A154BD31A7B617B693B61134B1B68D8
:10142C00002B02D1114B124A1A60104B1A687B68C0
:10143C0013443A699A4207D201F072FB03460C221C
:10144C001A604FF0FF3309E0084B1B68FB60074B39
:10145C001A687B681344054A1360FB6818461837F2
:10146C00BD4680BD00280020000400005001002073
:10147C00B801002080B400AF00BFBD4680BC7047EF
:10148C0080B500AF01224221044800F060FB00222D
:10149C003C21024800F05BFB00BF80BD000801400E
:1014AC0080B500AF01222221044800F050FB00223D
:1014BC005C21024800F04BFB00BF80BD00080140DE
:1014CC0080B500AF01221821044800F040FB002237
:1014DC006621024800F03BFB00BF80BD00080140C4
:1014EC0080B500AF01221421044800F030FB00222B
:1014FC006A21024800F02BFB00BF80BD00080140B0
:10150C00FFF7B8FF0B480C490C4A002302E0D458F3
:10151C00C4500433C4188C42F9D3094A094C002333
:10152C0001E013600432A242FBD301F0FFFAFFF793
:10153C00FFFB704700000020CC0000207C2D000831
:10154C00CC000020B8010020FEE7000080B500AF01
:10155C00084B1B68074A43F010031360032000F08C
:10156C0023F90F2000F008F8FFF7C6FE00231846F9
:10157C0080BD00BF0020024080B582B000AF786013
:10158C00124B1A68124B1B7819464FF47A73B3FB43
:10159C00F1F3B2FBF3F3184600F03BF90346002BD2
:1015AC0001D001230EE07B680F2B0AD8002279684A
:1015BC004FF0FF3000F003F9064A7B6813600023FC
:1015CC0000E0012318460837BD4680BD5C000020B2
:1015DC00640000206000002080B400AF054B1B7835
:1015EC001A46054B1B681344034A136000BFBD46E3
:1015FC0080BC704764000020A401002080B400AFC0
:10160C00024B1B681846BD4680BC7047A4010020E5
:10161C0080B485B000AF78607B6803F00703FB6093
:10162C000C4BDB68BB60BA684FF6FF031340BB6022
:10163C00FB681A02BB68134343F0BF6343F40033E7
:10164C00BB60044ABB68D36000BF1437BD4680BC86
:10165C00704700BF00ED00E080B400AF044BDB68C6
:10166C001B0A03F007031846BD4680BC704700BF39
:10167C0000ED00E080B483B000AF0346FB7197F936
:10168C000730002B0BDBFB7903F01F02064997F99F
:10169C0007305B09012000FA02F241F8232000BF59
:1016AC000C37BD4680BC704700E100E080B483B0CD
:1016BC0000AF03463960FB7197F90730002B0ADB4A
:1016CC003B68DAB20C4997F907301201D2B20B44DD
:1016DC0083F800230AE03B68DAB20849FB7903F08F
:1016EC000F03043B1201D2B20B441A7600BF0C3725
:1016FC00BD4680BC704700BF00E100E000ED00E09B
:10170C0080B489B000AFF860B9607A60FB6803F010
:10171C000703FB61FB69C3F10703042B28BF0423F8
:10172C00BB61FB690433062B02D9FB69033B00E068
:10173C0000237B614FF0FF32BB6902FA03F3DA43FB
:10174C00BB681A407B699A404FF0FF317B6901FA04
:10175C0003F3D9437B680B40134318462437BD462B
:10176C0080BC704780B582B000AF78607B68013B6D
:10177C00B3F1807F01D301230FE00A4A7B68013B60
:10178C0053600F214FF0FF30FFF790FF054B002205
:10179C009A60044B07221A60002318460837BD468E
:1017AC0080BD00BF10E000E080B582B000AF786073
:1017BC007868FFF72DFF00BF0837BD4680BD80B5A8
:1017CC0086B000AF0346B9607A60FB7300237B617F
:1017DC00FFF742FF78617A68B9687869FFF790FF84
:1017EC00024697F90F3011461846FFF75FFF00BF0E
:1017FC001837BD4680BD80B582B000AF0346FB7183
:10180C0097F907301846FFF735FF00BF0837BD467C
:10181C0080BD80B582B000AF78607868FFF7A2FF1A
:10182C00034618460837BD4680BD000080B48BB017
:10183C0000AF7860396000237B6200233B6248E193
:10184C0001227B6A02FA03F3FB613B681B68FA69AD
:10185C001340BB61BA69FB699A4240F037813B681F
:10186C005B68A34A93425ED0A14A934275D8A14AC1
:10187C00934258D09F4A93426FD89F4A934252D07A
:10188C009D4A934269D89D4A93424CD09B4A9342BD
:10189C0063D89B4A934246D0994A93425DD8122B07
:1018AC002AD8122B59D801A252F823F03319000868
:1018BC000D1900081F1900086119000867190008A4
:1018CC0067190008671900086719000867190008EC
:1018DC0067190008671900086719000867190008DC
:1018EC0067190008671900086719000867190008CC
:1018FC001519000829190008824A934213D02CE0CC
:10190C003B68DB683B6229E03B68DB6804333B6285
:10191C0024E03B68DB6808333B621FE03B68DB6814
:10192C000C333B621AE03B689B68002B02D104230A
:10193C003B6213E03B689B68012B05D108233B629B
:10194C007B68FA691A6109E008233B627B68FA69D3
:10195C005A6103E000233B6200E000BFBB69FF2B30
:10196C0001D87B6801E07B6804337B61BB69FF2B8A
:10197C0002D87B6A9B0002E07B6A083B9B003B61C0
:10198C007B691A680F213B6901FA03F3DB431A40A8
:10199C00396A3B6901FA03F31A437B691A603B68A5
:1019AC005B6803F08053002B00F09080564B9B69D2
:1019BC00554A43F001039361534B9B6903F00103B8
:1019CC00BB60BB68514A7B6A9B08023352F82330D8
:1019DC00FB607B6A03F003039B000F2202FA03F304
:1019EC00DB43FA681340FB607B68494A93420DD095
:1019FC007B68484A934207D07B68474A934201D19F
:101A0C00022304E0032302E0012300E000237A6AAE
:101A1C0002F0030292009340FA681343FB603B49C7
:101A2C007B6A9B080233FA6841F823203B685B68A9
:101A3C0003F48013002B06D0384B9A683749BB69E6
:101A4C0013438B6006E0354B9A68BB69DB43334923
:101A5C0013408B603B685B6803F40013002B06D0CB
:101A6C002E4BDA682D49BB691343CB6006E02B4B38
:101A7C00DA68BB69DB4329491340CB603B685B6880
:101A8C0003F40033002B06D0244B5A682349BB695E
:101A9C0013434B6006E0214B5A68BB69DB431F497B
:101AAC0013404B603B685B6803F48033002B06D01B
:101ABC001A4B1A681949BB6913430B6006E0174BA4
:101ACC001A68BB69DB43154913400B607B6A013311
:101ADC007B623B681A687B6A22FA03F3002B7FF463
:101AEC00AFAE00BF00BF2C37BD4680BC704700BFF7
:101AFC0000003210000031100000221000002110F4
:101B0C0000001210000011100010024000000140F3
:101B1C0000080140000C014000100140000401408D
:101B2C0080B485B000AF78600B467B807B689A6888
:101B3C007B881340002B02D00123FB7301E00023B0
:101B4C00FB73FB7B18461437BD4680BC704780B4D2
:101B5C0083B000AF78600B467B8013467B707B783C
:101B6C00002B03D07A887B681A6103E07B881A0407
:101B7C007B681A6100BF0C37BD4680BC704780B4CF
:101B8C0085B000AF78600B467B807B68DB68FB60C0
:101B9C007A88FB6813401A04FB68D9437B880B4096
:101BAC001A437B681A6100BF1437BD4680BC70476E
:101BBC0080B586B000AF78607B68002B01D1012323
:101BCC006CE27B681B6803F00103002B00F087803C
:101BDC00924B5B6803F00C03042B0CD08F4B5B68AF
:101BEC0003F00C03082B12D18C4B5B6803F480338D
:101BFC00B3F5803F0BD1894B1B6803F40033002BEA
:101C0C006CD07B685B68002B68D1012346E27B6853
:101C1C005B68B3F5803F06D1804B1B687F4A43F469
:101C2C00803313602EE07B685B68002B0CD17B4B00
:101C3C001B687A4A23F480331360784B1B68774A0D
:101C4C0023F4802313601DE07B685B68B3F5A02F41
:101C5C000CD1724B1B68714A43F4802313606F4B99
:101C6C001B686E4A43F4803313600BE06B4B1B68AC
:101C7C006A4A23F480331360684B1B68674A23F469
:101C8C00802313607B685B68002B13D0FFF7B6FCD6
:101C9C00386108E0FFF7B2FC02463B69D31A642BAB
:101CAC0001D90323FAE15D4B1B6803F40033002BCD
:101CBC00F0D014E0FFF7A2FC386108E0FFF79EFCBF
:101CCC0002463B69D31A642B01D90323E6E1534B3B
:101CDC001B6803F40033002BF0D100E000BF7B68DD
:101CEC001B6803F00203002B63D04C4B5B6803F0C2
:101CFC000C03002B0BD0494B5B6803F00C03082B37
:101D0C001CD1464B5B6803F48033002B16D1434B3C
:101D1C001B6803F00203002B05D07B681B69012BA9
:101D2C0001D00123BAE13D4B1B6823F0F8027B681C
:101D3C005B69DB00394913430B603AE07B681B6934
:101D4C00002B20D0364B01221A60FFF757FC38616C
:101D5C0008E0FFF753FC02463B69D31A022B01D96A
:101D6C0003239BE12D4B1B6803F00203002BF0D0E7
:101D7C002A4B1B6823F0F8027B685B69DB00274960
:101D8C0013430B6015E0264B00221A60FFF736FC5C
:101D9C00386108E0FFF732FC02463B69D31A022B8C
:101DAC0001D903237AE11D4B1B6803F00203002BBE
:101DBC00F0D17B681B6803F00803002B3AD07B68DA
:101DCC009B69002B19D0174B01221A60FFF716FCE8
:101DDC00386108E0FFF712FC02463B69D31A022B6C
:101DEC0001D903235AE10D4B5B6A03F00203002B6C
:101DFC00F0D0012000F09AFA1CE00A4B00221A6085
:101E0C00FFF7FCFB38610FE0FFF7F8FB02463B697C
:101E1C00D31A022B08D9032340E100BF0010024063
:101E2C0000004242800442429E4B5B6A03F0020374
:101E3C00002BE9D17B681B6803F00403002B00F036
:101E4C00A6800023FB75974BDB6903F08053002BB6
:101E5C000DD1944BDB69934A43F08053D361914B82
:101E6C00DB6903F08053BB60BB680123FB758E4BB1
:101E7C001B6803F48073002B18D18B4B1B688A4AA8
:101E8C0043F480731360FFF7B9FB386108E0FFF788
:101E9C00B5FB02463B69D31A642B01D90323FDE041
:101EAC00814B1B6803F48073002BF0D07B68DB68DC
:101EBC00012B06D17B4B1B6A7A4A43F00103136258
:101ECC002DE07B68DB68002B0CD1764B1B6A754AC6
:101EDC0023F001031362734B1B6A724A23F0040351
:101EEC0013621CE07B68DB68052B0CD16D4B1B6A05
:101EFC006C4A43F0040313626A4B1B6A694A43F051
:101F0C00010313620BE0674B1B6A664A23F0010363
:101F1C001362644B1B6A634A23F0040313627B68ED
:101F2C00DB68002B15D0FFF769FB38610AE0FFF77F
:101F3C0065FB02463B69D31A41F28832934201D9C0
:101F4C000323ABE0574B1B6A03F00203002BEED0CC
:101F5C0014E0FFF753FB38610AE0FFF74FFB024632
:101F6C003B69D31A41F28832934201D9032395E09D
:101F7C004C4B1B6A03F00203002BEED1FB7D012BB3
:101F8C0005D1484BDB69474A23F08053D3617B680A
:101F9C00DB69002B00F08180424B5B6803F00C0383
:101FAC00082B61D07B68DB69022B46D13F4B0022AA
:101FBC001A60FFF723FB386108E0FFF71FFB0246AE
:101FCC003B69D31A022B01D9032367E0354B1B68FD
:101FDC0003F00073002BF0D17B681B6AB3F5803FD4
:101FEC0008D1304B5B6823F400327B689B682D4929
:101FFC0013434B602B4B5B6823F474127B68196A98
:10200C007B685B6A0B43274913434B60274B0122C8
:10201C001A60FFF7F3FA386108E0FFF7EFFA0246AF
:10202C003B69D31A022B01D9032337E01D4B1B68E4
:10203C0003F00073002BF0D02FE01C4B00221A6031
:10204C00FFF7DCFA386108E0FFF7D8FA02463B6983
:10205C00D31A022B01D9032320E0124B1B6803F087
:10206C000073002BF0D118E07B68DB69012B01D1E8
:10207C00012313E00B4B5B68FB60FB6803F48032BD
:10208C007B681B6A9A4206D1FB6803F470127B686A
:10209C005B6A9A4201D0012300E0002318461837EE
:1020AC00BD4680BD001002400070004060004242FE
:1020BC0080B584B000AF786039607B68002B01D1AB
:1020CC000123D0E06A4B1B6803F007033A689A427D
:1020DC0010D9674B1B6823F0070265493B68134313
:1020EC000B60634B1B6803F007033A689A4201D0FC
:1020FC000123B8E07B681B6803F00203002B20D09F
:10210C007B681B6803F00403002B05D0594B5B68FC
:10211C00584A43F4E06353607B681B6803F0080380
:10212C00002B05D0534B5B68524A43F46053536009
:10213C00504B5B6823F0F0027B689B684D4913435E
:10214C004B607B681B6803F00103002B40D07B685D
:10215C005B68012B07D1474B1B6803F40033002B42
:10216C0015D101237FE07B685B68022B07D1414BC3
:10217C001B6803F00073002B09D1012373E03D4B66
:10218C001B6803F00203002B01D101236BE0394BD8
:10219C005B6823F003027B685B68364913434B6032
:1021AC00FFF72CFAF8600AE0FFF728FA0246FB6802
:1021BC00D31A41F28832934201D9032353E02D4BB9
:1021CC005B6803F00C027B685B689B009A42EBD166
:1021DC00274B1B6803F007033A689A4210D2244B32
:1021EC001B6823F0070222493B6813430B60204B0A
:1021FC001B6803F007033A689A4201D0012332E0CE
:10220C007B681B6803F00403002B08D0194B5B6838
:10221C0023F4E0627B68DB68164913434B607B68F0
:10222C001B6803F00803002B09D0124B5B6823F4E6
:10223C0060527B681B69DB000E4913434B6000F056
:10224C0021F802460B4B5B681B0903F00F030A498C
:10225C00CB5C22FA03F3094A1360094B1B6818463E
:10226C00FFF78AF9002318461037BD4680BD00BF22
:10227C000020024000100240502D00085C0000209D
:10228C006000002080B487B000AF0023FB60002307
:10229C00BB6000237B6100237B6000233B611E4BF2
:1022AC005B68FB60FB6803F00C03042B02D0082B6B
:1022BC0003D027E0194B3B6127E0FB689B0C03F034
:1022CC000F03174AD35C7B60FB6803F48033002B4D
:1022DC0010D0114B5B685B0C03F00103114AD35C0B
:1022EC00BB607B680D4A02FB03F2BB68B2FBF3F3E5
:1022FC007B6104E07B680C4A02FB03F37B617B6926
:10230C003B6102E0054B3B6100BF3B6918461C3743
:10231C00BD4680BC704700BF0010024000127A001E
:10232C00602D0008702D000800093D0080B485B0B8
:10233C0000AF78600A4B1B680A4AA2FB03235B0AB6
:10234C007A6802FB03F3FB6000BFFB685A1EFA605D
:10235C00002BF9D100BF00BF1437BD4680BC7047BD
:10236C005C000020D34D621080B582B000AF786065
:10237C007B68002B01D1012341E07B6893F83D3051
:10238C00DBB2002B06D17B68002283F83C207868F6
:10239C00FEF7E4FF7B68022283F83D207B681A6815
:1023AC007B6804331946104600F056FA7B6801220C
:1023BC0083F846207B68012283F83E207B6801224B
:1023CC0083F83F207B68012283F840207B68012240
:1023DC0083F841207B68012283F842207B6801222C
:1023EC0083F843207B68012283F844207B68012218
:1023FC0083F845207B68012283F83D200023184692
:10240C000837BD4680BD000080B485B000AF786051
:10241C007B6893F83D30DBB2012B01D0012335E012
:10242C007B68022283F83D207B681B68DA687B6836
:10243C001B6842F00102DA607B681B68164A934203
:10244C0009D07B681B68B3F1804F04D07B681B6894
:10245C00124A934211D17B681B689B6803F00703F7
:10246C00FB60FB68062B10D07B681B681A687B68C6
:10247C001B6842F001021A6007E07B681B681A684F
:10248C007B681B6842F001021A600023184614375F
:10249C00BD4680BC704700BF002C014000040040CA
:1024AC0080B584B000AF78607B681B68DB68FB602C
:1024BC007B681B681B69BB60BB6803F00203002BC5
:1024CC0020D0FB6803F00203002B1BD07B681B6839
:1024DC006FF002021A617B6801221A777B681B6815
:1024EC009B6903F00303002B03D0786800F098F984
:1024FC0005E0786800F08BF9786800F09AF97B6851
:10250C0000221A77BB6803F00403002B20D0FB6871
:10251C0003F00403002B1BD07B681B686FF00402D4
:10252C001A617B6802221A777B681B689B6903F42B
:10253C004073002B03D0786800F072F905E07868DE
:10254C0000F065F9786800F074F97B6800221A775E
:10255C00BB6803F00803002B20D0FB6803F00803D2
:10256C00002B1BD07B681B686FF008021A617B681C
:10257C0004221A777B681B68DB6903F00303002BCA
:10258C0003D0786800F04CF905E0786800F03FF96A
:10259C00786800F04EF97B6800221A77BB6803F06C
:1025AC001003002B20D0FB6803F01003002B1BD072
:1025BC007B681B686FF010021A617B6808221A771F
:1025CC007B681B68DB6903F44073002B03D07868CD
:1025DC0000F026F905E0786800F019F9786800F049
:1025EC0028F97B6800221A77BB6803F00103002BE3
:1025FC000CD0FB6803F00103002B07D07B681B6831
:10260C006FF001021A617868FEF7C0FCBB6803F03A
:10261C008003002B0CD0FB6803F08003002B07D049
:10262C007B681B686FF080021A61786800F06FFAA3
:10263C00BB6803F04003002B0CD0FB6803F0400395
:10264C00002B07D07B681B686FF040021A6178681A
:10265C0000F0F8F8BB6803F02003002B0CD0FB68EB
:10266C0003F02003002B07D07B681B686FF020025F
:10267C001A61786800F042FA00BF1037BD4680BD81
:10268C0080B584B000AF786039600023FB737B6841
:10269C0093F83C30012B01D10223B4E07B6801227A
:1026AC0083F83C207B68022283F83D207B681B6802
:1026BC009B68BB60BB6823F07703BB60BB6823F4EB
:1026CC007F43BB607B681B68BA689A603B681B6879
:1026DC00B3F5005F3ED0B3F5005F00F28780B3F531
:1026EC00805F00F08680B3F5805F7FD8702B1AD0A6
:1026FC00702B7BD8602B50D0602B77D8502B3CD0D4
:10270C00502B73D8402B58D0402B6FD8302B64D023
:10271C00302B6BD8202B60D0202B67D8002B5CD0B3
:10272C00102B5AD062E07B6818683B6899683B684C
:10273C005A683B68DB6800F06AF97B681B689B6829
:10274C00BB60BB6843F07703BB607B681B68BA68EF
:10275C009A604FE07B6818683B6899683B685A68D8
:10276C003B68DB6800F053F97B681B689A687B68F0
:10277C001B6842F480429A603CE07B6818683B68B6
:10278C0059683B68DB681A4600F0CAF87B681B681E
:10279C005021184600F021F92CE07B6818683B6842
:1027AC0059683B68DB681A4600F0E8F87B681B68E0
:1027BC006021184600F011F91CE07B6818683B6832
:1027CC0059683B68DB681A4600F0AAF87B681B68FE
:1027DC004021184600F001F90CE07B681A683B6850
:1027EC001B681946104600F0F8F803E00123FB7350
:1027FC0000E000BF7B68012283F83D207B6800224B
:10280C0083F83C20FB7B18461037BD4680BD80B456
:10281C0083B000AF786000BF0C37BD4680BC7047FA
:10282C0080B483B000AF786000BF0C37BD4680BC6D
:10283C00704780B483B000AF786000BF0C37BD46E2
:10284C0080BC704780B483B000AF786000BF0C3799
:10285C00BD4680BC7047000080B485B000AF786086
:10286C0039607B681B68FB607B682B4A934207D0FE
:10287C007B68B3F1804F03D07B68284A934208D120
:10288C00FB6823F07003FB603B685B68FA681343DA
:10289C00FB607B68204A934207D07B68B3F1804F82
:1028AC0003D07B681D4A934208D1FB6823F4407324
:1028BC00FB603B68DB68FA681343FB60FB6823F042
:1028CC0080023B685B691343FB607B68FA681A60A3
:1028DC003B689A687B68DA623B681A687B689A6224
:1028EC007B680D4A934203D13B681A697B681A6373
:1028FC007B6801225A617B681B6903F00103002B82
:10290C0005D07B681B6923F001027B681A6100BF4C
:10291C001437BD4680BC7047002C014000040040B9
:10292C0080B487B000AFF860B9607A60FB681B6A4E
:10293C007B61FB681B6A23F00102FB681A62FB686F
:10294C009B693B613B6923F0F0033B617B681B0196
:10295C003A6913433B617B6923F00A037B617A6913
:10296C00BB6813437B61FB683A699A61FB687A69BF
:10297C001A6200BF1C37BD4680BC704780B487B05C
:10298C0000AFF860B9607A60FB681B6A7B61FB681A
:10299C001B6A23F01002FB681A62FB689B693B619F
:1029AC003B6923F470433B617B681B033A69134317
:1029BC003B617B6923F0A0037B61BB681B017A69D7
:1029CC0013437B61FB683A699A61FB687A691A6206
:1029DC0000BF1C37BD4680BC704780B485B000AFCB
:1029EC00786039607B689B68FB60FB6823F0700340
:1029FC00FB603A68FB68134343F00703FB607B689A
:102A0C00FA689A6000BF1437BD4680BC704780B42A
:102A1C0087B000AFF860B9607A603B60FB689B6878
:102A2C007B617B6923F47F437B613B681A027B6883
:102A3C001A43BB6813437A6913437B61FB687A6959
:102A4C009A6000BF1C37BD4680BC704780B485B00F
:102A5C0000AF786039607B6893F83C30012B01D172
:102A6C00022341E07B68012283F83C207B68022230
:102A7C0083F83D207B681B685B68FB607B681B6888
:102A8C009B68BB60FB6823F07003FB603B681B68B2
:102A9C00FA681343FB607B681B68FA685A607B68B2
:102AAC001B68144A934209D07B681B68B3F1804FB2
:102ABC0004D07B681B68104A93420CD1BB6823F08E
:102ACC008003BB603B685B68BA681343BB607B6880
:102ADC001B68BA689A607B68012283F83D207B688A
:102AEC00002283F83C20002318461437BD4680BCD6
:102AFC00704700BF002C01400004004080B483B03C
:102B0C0000AF786000BF0C37BD4680BC704780B406
:102B1C0083B000AF786000BF0C37BD4680BC7047F7
:102B2C00014B1868704700BF6800002070B5002684
:102B3C000C4D0D4C641BA410A64209D100F0F6F804
:102B4C0000260A4D0A4C641BA410A64205D170BD88
:102B5C0055F8043B98470136EEE755F8043B984787
:102B6C000136F2E7742D0008742D0008742D00084E
:102B7C00782D0008024B0146186800F05FB800BFC2
:102B8C0068000020024B0146186800F00BB800BF2B
:102B9C006800002003460244934200D1704703F8BA
:102BAC00011BF9E738B50546002943D051F8043C20
:102BBC000C1F002BB8BFE41800F0AAF81E4A1368CB
:102BCC00104633B9636014602846BDE8384000F005
:102BDC00A5B8A3420AD921686218934201BF1A68AA
:102BEC005B685218226063600460EDE71A465B680C
:102BFC000BB1A342FAD911685018A0420BD120682E
:102C0C000144501883421160DED118685B6801449E
:102C1C0011605360D8E702D90C232B60D4E72068ED
:102C2C0021188B4201BF19685B6809182160636029
:102C3C005460C9E738BD00BF54010020F8B5CD1C65
:102C4C0025F0030508350C2D38BF0C25002D064644
:102C5C0001DBA94203D90C2333600020F8BD00F03E
:102C6C0057F821490A6814469CB9204F3B6823B990
:102C7C002146304600F03CF838602946304600F0DA
:102C8C0037F8431C23D10C233046336000F046F850
:102C9C00E3E723685B1B17D40B2B03D923601C447D
:102CAC00256004E06368A2420CBF0B6053603046A1
:102CBC0000F034F804F10B00231D20F00700C21AB9
:102CCC00CCD01B1AA350C9E722466468CCE7C41CBD
:102CDC0024F00304A042E3D0211A304600F008F897
:102CEC000130DDD1CFE700BF540100205801002096
:102CFC0038B50023054D044608462B60FEF784FBCF
:102D0C00431C02D12B6803B1236038BDA8010020FD
:102D1C00014800F009B800BFB0010020014800F0E4
:102D2C0004B800BFB001002070477047F8B500BF71
:102D3C00F8BC08BC9E467047F8B500BFF8BC08BC90
:042D4C009E467047E8
:102D5000000000000000000001020304060708094B
:102D600002030405060708090A0B0C0D0E0F1010CC
:042D7000010200005C
:042D74003101000821
:042D78000D01000841
:102D7C000100000001000000010000000100000043
:102D8C000100000001000000010000000100000033
:102D9C000100000001000000010000000100000023
:102DAC000020004000800000050000000200000030
:102DBC0003000000050000000200000003000000FA
:102DCC0005000000010000000A00000000127A005B
:102DDC0010000000010000006C000020000000004A
:102DEC0000000000000000000000000000000000D7
:102DFC0000000000000000000000000000000000C7
:102E0C0000000000000000000000000000000000B6
:102E1C0000000000000000000000000000000000A6
:102E2C000000000000000000000000000000000096
:0C2E3C000000000000000000000000008A
:040000050800150DCD
:00000001FF
